:100000000C942A000C9485000C9485000C948500B7
:100010000C9485000C9485000C9485000C9485004C
:100020000C9485000C9485000C9485000C9485003C
:100030000C9485000C9485000C9485000C9485002C
:100040000C9485000C9485000C9485000C9485001C
:100050000C94850011241FBECFE5D4E0DEBFCDBFD8
:0C0060000E9436000C947A00F894FFCF48
:10006C00CF93DF93CDB7DEB760970FB6F894DEBFB2
:10007C000FBECDBF8FEF81BB8FE08ABB81E08BBB06
:10008C008FE3898386E08A838BE58B838FE48C8373
:10009C0086E68D838DE68E838DE78F8387E0888758
:1000AC008FE7898787E68A8787E78B878CE78C873A
:1000BC0089E38D878EE58E8789E78F8781E7888B2B
:1000CC009E012F5E3F4FFE013196819182BB4FE91D
:1000DC0086E891E0415080409040E1F700C000007C
:0800EC00E217F30791F7EFCFD3
:1000F400EC010E948A000E948900CE010E948B00BC
:06010400CE010E948700FD
:04010A000C94000051
:04010E000E94340017
:0201120008954E
:0201140008954C
:0201160008954A
:00000001FF
