:100000000C942A000C9452000C9452000C94520050
:100010000C9452000C9452000C9452000C94520018
:100020000C9452000C9452000C9452000C94520008
:100030000C9452000C9452000C9452000C945200F8
:100040000C9452000C9452000C9452000C945200E8
:100050000C94520011241FBECFE5D4E0DEBFCDBF0B
:0C0060000E9436000C944700F894FFCF7B
:10006C008FEF87BB80E090E088BBE3E2F4EF319741
:10007C00F1F700C0000001968115F1E09F07A1F790
:02008C00F1CFB2
:10008E00EC010E9457000E945600CE010E945800BB
:06009E00CE010E94540097
:0400A4000C940000B8
:0400A8000E9434007E
:0200AC000895B5
:0200AE000895B3
:0200B0000895B1
:00000001FF
