:100000000C942A000C94CD000C94CD000C94CD00DF
:100010000C94CD000C94CD000C94CD000C94CD002C
:100020000C94CD000C94CD000C94CD000C94CD001C
:100030000C94CD000C94CD000C94CD000C94CD000C
:100040000C94CD000C94CD000C94CD000C94CD00FC
:100050000C94CD0011241FBECFE5D4E0DEBFCDBF90
:0C0060000E9436000C94C200F894FFCF00
:10006C00CF93DF93CDB7DEB7E3970FB6F894DEBF2F
:10007C000FBECDBF8FEF81BB8FE08ABB4CE74983AE
:10008C0090E59A8387E78B832CE12C8338E33D83BF
:10009C00E6E0EE832FE32F83188689873A874B8718
:1000AC0059E75C8748E74D872E871F866EE3688B80
:1000BC00898B9A8B4DE74B8B8C8B7DE67D8B1E8AC7
:1000CC004F8B888F998FF9E3FA8FEB8F8C8F1D8E66
:1000DC00E0E8EE8F8F8F38A3EEE5E9A32AA31BA2ED
:1000EC00E1E7ECA33DA32EA39FA358A779A71AA6DB
:1000FC006BA75CA74DA78EA71FA618AA19AA1AAAA8
:10010C001BAA8E01005D1F4F61E052E044E038E015
:10011C00FE0131962EC0208122BB6BBBA9EFB0E053
:10012C001197F1F700C000001BBA218122BB5BBB09
:10013C00A9EFB0E01197F1F700C000001BBA2281C3
:10014C0022BB4BBBA9EFB0E01197F1F700C0000048
:10015C001BBA238122BB3BBBA9EFB0E01197F1F78F
:10016C0000C000001BBA0197B1F63196E017F107F9
:08017C0079F284E690E0CFCF98
:10018400EC010E94D2000E94D100CE010E94D30053
:06019400CE010E94CF0025
:04019A000C940000C1
:04019E000E94340087
:0201A2000895BE
:0201A4000895BC
:0201A6000895BA
:00000001FF
