:100000000C942A000C94CF000C94CF000C94CF00D9
:100010000C94CF000C94CF000C94CF000C94CF0024
:100020000C94CF000C94CF000C94CF000C94CF0014
:100030000C94CF000C94CF000C94CF000C94CF0004
:100040000C94CF000C94CF000C94CF000C94CF00F4
:100050000C94CF0011241FBECFE5D4E0DEBFCDBF8E
:0C0060000E9436000C94C400F894FFCFFE
:10006C00CF93DF93CDB7DEB760970FB6F894DEBFB2
:10007C000FBECDBF8FEF81BB8FE08ABB8FE389832F
:10008C0086E08A838BE58B838FE48C8386E68D8375
:10009C008DE68E838DE78F8387E088878FE789874E
:1000AC0087E68A8787E78B878CE78C8789E38D8740
:1000BC008EE58E8789E78F8781E7888B8E01055FB8
:1000CC001F4FDD24D3946894EE24E1F86894FF2448
:1000DC00F2F838E0AE014F5F5F4F4CC0DA012C9163
:1000EC0022BBDBBAA9EFB0E01197F1F700C000001A
:1000FC001BBADB012C9122BBEBBAA9EFB0E0119734
:10010C00F1F700C000001BBAD5012C9122BBFBBA41
:10011C00A9EFB0E01197F1F700C000001BBA2081E5
:10012C0022BB3BBBA9EFB0E01197F1F700C0000078
:10013C001BBA019799F631960E171F0719F082E337
:10014C0090E0CCCFBFEFAB1ABB0A0A151B0519F018
:10015C00FE013196F4CF6F5F7F4F0617170721F022
:10016C00CE0101965C01F4CF4F5F5F4F041715076A
:0C017C0009F4B0CFBE016F5F7F4FF2CFDF
:10018800EC010E94D4000E94D300CE010E94D50049
:06019800CE010E94D1001F
:04019E000C940000BD
:0401A2000E94340083
:0201A6000895BA
:0201A8000895B8
:0201AA000895B6
:00000001FF
