:100000000C942A000C94AE000C94AE000C94AE003C
:100010000C94AE000C94AE000C94AE000C94AE00A8
:100020000C94AE000C94AE000C94AE000C94AE0098
:100030000C94AE000C94AE000C94AE000C94AE0088
:100040000C94AE000C94AE000C94AE000C94AE0078
:100050000C94AE0011241FBECFE5D4E0DEBFCDBFAF
:0C0060000E9436000C94A300F894FFCF1F
:10006C00CF93DF9300D0CDB7DEB78FEF81BB8FE09E
:10007C008ABB8FE3898386E08A838E010D5F1F4FD5
:10008C00DD24D3946894EE24E1F86894FF24F2F80C
:10009C0038E0BE016F5F7F4F4CC0DB012C9122BB5F
:1000AC00DBBAA9EFB0E01197F1F700C000001BBA62
:1000BC00DA012C9122BBEBBAA9EFB0E01197F1F762
:1000CC0000C000001BBAD5012C9122BBFBBAA9EFD2
:1000DC00B0E01197F1F700C000001BBA208122BBE1
:1000EC003BBBA9EFB0E01197F1F700C000001BBAC1
:1000FC00019799F631960E171F0719F084E690E0D8
:10010C00CCCFBFEFAB1ABB0A0A151B0519F0FE01C9
:10011C003196F4CF4F5F5F4F0417150721F0CE01D6
:10012C0001965C01F4CF6F5F7F4F0617170709F438
:0A013C00B0CFAE014F5F5F4FF2CF6E
:10014600EC010E94B3000E94B200CE010E94B400EE
:06015600CE010E94B00082
:04015C000C940000FF
:040160000E943400C5
:020164000895FC
:020166000895FA
:020168000895F8
:00000001FF
