:100000000C942E000C9440010C9440010C9440017F
:100010000C9440010C9440010C9440010C9440015C
:100020000C9440010C9440010C9440010C9440014C
:100030000C9440010C9440010C9440010C9440013C
:100040000C9440010C9440010C9440010C9440012C
:100050000C9440010060006B00028E0011241FBE52
:10006000CFE5D4E0DEBFCDBFE4E5F0E040E017C06F
:10007000B591A59135912591059107FD0CC09591FC
:100080008591EF01F92FE82F05900D92A217B30784
:10009000D9F7FE0104C01D92A217B307E1F7EB35B3
:1000A000F40731F70E9458000C943501F894FFCF03
:1000B000CF93DF93CDB7DEB76F970FB6F894DEBF5F
:1000C0000FBECDBF8BE0E0E6F0E0DE0111960190BF
:1000D0000D928A95E1F7FE0131964E0180E2880E7D
:1000E000911CDE011C96819190E08D939D93A81543
:1000F000B905C9F7B898EFE4F3EC3197F1F700C010
:1001000000000E94C900CE010C966C013AC0F601B5
:1001100080810E942401F50180810E942401F70161
:1001200080810E942401F80180810E94240187EAD5
:1001300091E60197F1F700C0000082E00E941301F0
:10014000B09BE5CF0E5F1F4F0815190501F792E030
:10015000E90EF11C8E149F0421F08E01045F1F4FE5
:10016000D6CFE2E0AE0EB11C8A149B0421F0CE0182
:100170000C967C01F2CF92E0C90ED11CC814D904B0
:1001800021F0FE013C965F01F2CF81E00E94130155
:02019000BACFE4
:100192008FEF81BB87E08ABB85EA9EE00197F1F78A
:1001A20000C0000080E30E94130189EF90E00197F4
:1001B200F1F700C0000080E30E94130189EF90E094
:1001C2000197F1F700C0000080E30E94130189EF5C
:1001D20090E00197F1F700C0000088E30E9413014C
:1001E20089EF90E00197F1F700C000008CE00E94D7
:1001F200130189EF90E00197F1F700C0000081E060
:100202000E94130189EF90E00197F1F700C000000E
:1002120086E00E94130189EF90E00197F1F700C098
:04022200000008953B
:1002260082BB8CEF8BBB89EF90E00197F1F700C0A2
:100236000000DA9883ED90E30197F1F700C0000023
:02024600089519
:1002480082BB85E08BBB89EF90E00197F1F700C096
:100258000000DA9883ED90E30197F1F700C0000001
:020268000895F7
:10026A00EC010E9445010E944401CE010E94460110
:06027A00CE010E944201CA
:040280000C940000DA
:040284000E9456007E
:020288000895D7
:02028A000895D5
:02028C000895D3
:0B028E00303132333435363738393028
:00000001FF
