:100000000C942E000C94B1000C94B1000C94B1002F
:100010000C94B1000C94B1000C94B1000C94B1009C
:100020000C94B1000C94B1000C94B1000C94B1008C
:100030000C94B1000C94B1000C94B1000C94B1007C
:100040000C94B1000C94B1000C94B1000C94B1006C
:100050000C94B100006000E80001700011241FBE84
:10006000CFE5D4E0DEBFCDBFE4E5F0E040E017C06F
:10007000B591A59135912591059107FD0CC09591FC
:100080008591EF01F92FE82F05900D92A217B30784
:10009000D9F7FE0104C01D92A217B307E1F7EB35B3
:1000A000F40731F70E9458000C94A600F894FFCF93
:1000B000CF93DF93CDB7DEB7C858D1090FB6F89408
:1000C000DEBF0FBECDBF8FEF81BB8ABB88E0E0E60D
:1000D000F0E0DE01119601900D928A95E1F780E83B
:1000E000E8E6F0E0DE01199601900D928A95E1F7BD
:1000F0008E0107571F4F9E01275F3F4FFF24FA9441
:10010000BE01675F7F4F1FC08D9182BB819180953B
:100110008BBB89EF90E00197F1F700C00000FBBABC
:1001200093E59A95F1F70000E217F30769F741505C
:10013000510921F0FE013196DB01E6CF685F7F4F68
:0C01400060177107E9F244E650E0F4CFCC
:10014C00EC010E94B6000E94B500CE010E94B700DF
:06015C00CE010E94B30079
:040162000C940000F9
:040166000E9456009D
:02016A000895F6
:02016C000895F4
:02016E000895F2
:100170000102040810204080C3813C3C3C3C81C308
:10018000C707E7E7E7E70000813CFCF1C79F3F00B6
:10019000813C3CE1E13C3C81F1E1C99900F9F9F98C
:1001A000003F3F01FCFC3983C09F3F013C3C39814B
:1001B0000101F9F9F9F9F9F9813C3C81813C3C8173
:1001C000813C3C80FCFCFCFCC3003C3C003C3C3CD7
:1001D000013C3C013C3C3C01813C3C3F3F3C3C8180
:1001E000033C3C3C3C3C3C03003F3F07073F3F0097
:0801F00000003F3F0F3F3F3FBD
:00000001FF
