:100000000C942E000C9423010C9423010C942301D6
:100010000C9423010C9423010C9423010C942301D0
:100020000C9423010C9423010C9423010C942301C0
:100030000C9423010C9423010C9423010C942301B0
:100040000C9423010C9423010C9423010C942301A0
:100050000C942301006001160002540011241FBEFD
:10006000CFE5D4E0DEBFCDBFE4E5F0E040E017C06F
:10007000B591A59135912591059107FD0CC09591FC
:100080008591EF01F92FE82F05900D92A217B30784
:10009000D9F7FE0104C01D92A217B307E1F7EB35B3
:1000A000F40731F70E9458000C941801F894FFCF20
:1000B000CF93DF93CDB7DEB7C65BD1090FB6F89407
:1000C000DEBF0FBECDBF8FEF81BB8ABB86EBE0E604
:1000D000F0E0DE01119601900D928A95E1F7AE01F4
:1000E00041555F4F0F2EFEEFFF2EF02D8FEF0DEFDE
:1000F0001BEF0F2EF7EFCF2EF02D0F2EFFEEBF2EA2
:10010000F02D7FED6FEFFE0131960F2EFFEBDF2E0E
:10011000F02D0F2EFFE7EF2EF02D87C0908192BBC0
:10012000FBBAA9EFB0E01197F1F700C000008BBB5C
:10013000B3E5BA95F1F70000918192BB0BBBA9EF33
:10014000B0E01197F1F700C000008BBBB3E5BA95A2
:10015000F1F70000928192BB1BBBA9EFB0E01197B1
:10016000F1F700C000008BBBB3E5BA95F1F70000D2
:10017000938192BBCBBAA9EFB0E01197F1F700C021
:1001800000008BBBB3E5BA95F1F70000948192BBF8
:10019000BBBAA9EFB0E01197F1F700C000008BBB2C
:1001A000B3E5BA95F1F70000958192BB7BBBA9EF4F
:1001B000B0E01197F1F700C000008BBBB3E5BA9532
:1001C000F1F70000968192BBDBBAA9EFB0E011977E
:1001D000F1F700C000008BBBB3E5BA95F1F7000062
:1001E000978192BBEBBAA9EFB0E01197F1F700C08D
:1001F00000008BBBB3E5BA95F1F70000908592BB88
:100200006BBBA9EFB0E01197F1F700C000008BBB0A
:10021000B3E5BA95F1F700002150310909F07ECF1E
:100220003196E417F50709F46ECF2AE030E076CF77
:10023000EC010E9428010E942701CE010E942901A1
:06024000CE010E94250121
:040246000C94000014
:04024A000E945600B8
:02024E00089511
:0202500008950F
:0202520008950D
:10025400FFFFFFFFFFFFFFFFFFFFFFFFFFFFFFFFAA
:10026400FFFF033C3C3C3C3C3C03FFFF003F3F079B
:10027400073F3F00FFFF1C0C0C2424303038FFFFE5
:100284003C3C3C3C3C99C3E7FFFF003F3F07073F32
:100294003F00FFFF013C3C013C3C3C3CFFFFFFFFB7
:1002A400FFFFFFFFFFFFFFFF013C3C013C3C3C0123
:1002B400FFFF013C3C013C3C3C3CFFFFC3813C3C18
:1002C4003C3C81C3FFFF1C0C0C2424303038FFFF5E
:1002D400813C3C3F3F3C3C81FFFFC3813C3C3C3C78
:1002E40081C3FFFF813C3F81FCFC3983FFFFFFFF9B
:1002F400FFFFFFFFFFFEFFFFFFFFFFFFFFFFFFFF0B
:06030400FFFFFFFFFFFFF9
:00000001FF
