:100000000C942D000C940E0B0C940E0B0C940E0BF8
:100010000C940E0B0C940E0B0C940E0B0C940E0BFC
:100020000C940E0B0C940E0B0C940E0B0C940E0BEC
:100030000C940E0B0C940E0B0C940E0B0C940E0BDC
:100040000C940E0B0C940E0B0C940E0B0C940E0BCC
:100050000C940E0B00600062800011241FBECFE5DF
:10006000D4E0DEBFCDBFE4E5F0E040E017C0B591DD
:10007000A59135912591059107FD0CC0959185912C
:10008000EF01F92FE82F05900D92A217B307D9F7CA
:10009000FE0104C01D92A217B307E1F7E935F4078A
:0E00A00031F70E940C0A0C94CC0AF894FFCFA2
:0800AE0000000000DCCFD13599
:0800B6000000000000C0153F2E
:0800BE000000803F0000C03F7C
:1000C600A3E2B0E0E9E6F0E00C947A0A29833A83E9
:1000D6004B835C8329013A01E89477F84114510473
:1000E6006104710409F46CC66D877E878F87988BCF
:1000F6007B018C0161157105A0E88A07AFE39A07B9
:1001060009F45EC629873A874B875C874B015C01F9
:100116006B017C01E894F7F8B1E0CB16D104B0E8A6
:10012600EB06BFE7FB0644F4E1E04E165104E0E8B7
:100136006E06EFE77E064CF029853A854B855C8591
:10014600C501B4010E94DF0A46C60D851E852F85AE
:10015600388937FF4DC04114510410E861061BE48D
:1001660071060CF04AC04114510420E862062FE3E0
:1001760072060CF470C0D301C20107E1B595A795CC
:10018600979587950A95D1F78F579109A109B109D6
:1001960027E130E0281B390BD301C201022E04C02F
:1001A600B595A795979587950A94D2F7AC01BD01A9
:1001B60004C0440F551F661F771F2A95D2F74416B1
:1001C60055066606770609F046C081709927AA2764
:1001D600BB2742E050E060E070E08A019B01081B0B
:1001E600190B2A0B3B0B0D831E832F83388737C0D1
:1001F6001D821E821F82188608C022E030E040E081
:1002060050E02D833E834F8358874114510430E8D4
:1002160063063FE7730619F5C114D10440E8E40606
:100226004FE3F40609F4CCC55CF0E980FA800B8153
:100236001C8117FDCAC569857A858B859C85CBC5CA
:10024600E980FA800B811C8117FFBFC569857A8515
:100256008B859C858AC01D821E821F82188641144A
:10026600510400E860060FE3700669F4E980FA803D
:100276000B811C8117FFADC5A501940160E070E0FC
:1002860080E89FE365C009811A812B813C810115B5
:100296001105210540E4340729F4A5019401C5019F
:1002A600B401C2C089819A81AB81BC810097A10546
:1002B600BF4359F40D851E852F85388937FD05C046
:1002C600C501B4010E94F20686C5C501B4010E94AB
:1002D600100BC114D104E104F10449F09501840125
:1002E6003F730115110520483F4309F040C00981BD
:1002F6001A812B813C8137FF08C09B01AC0160E06D
:1003060070E080E89FE30E94030B2D853E854F85B4
:10031600588957FF60C530E8E31A3FE3F30A0D81B9
:100326001E812F813885C02AD12AE22AF32AC114D8
:10033600D104E104F10479F421E230E03093610064
:10034600209360009B01AC010E94DE0A9B01AC0178
:100356000E94030B40C52D813E814F815885213077
:1003660031054105510509F036C5905834C50D854E
:100376001E852F85388937FF21C02D813E814F810B
:100386005885232B242B252B59F481E290E090935A
:10039600610080936000A5019401C501B401D4CF2A
:1003A6000D811E812F81388501301105210531050A
:1003B60071F420E030E040E85FEB0DC000E010E0B3
:1003C60020E83FE30D831E832F83388708C020E093
:1003D60030E040E85FE32D833E834F83588731E06A
:1003E6004316510461043DE473060CF497C048EFCC
:1003F600C4164FEFD4064FE7E4064FE3F406BCF409
:10040600E980FA800B811C8117FF60C32AEC32EF6A
:1004160049E451E76D817E818F8198850E94070BA3
:100426002AEC32EF49E451E70E94070BD4C408E0F6
:10043600C016D10400E8E0060FE3F00654F0E980A8
:10044600FA800B811C811E141F0410061106F4F29B
:100456003DC320E030E040E85FE30E94DE0A6B0126
:100466007C0120E03AEA48EB5FE30E94070B4B0170
:100476005C0120E735EA4CEE56E3C701B6010E945F
:10048600070B69837A838B839C8320E030E040E806
:100496005EE3C701B6010E94070B9B01AC016BEA44
:1004A6007AEA8AEA9EE30E94DE0AA70196010E9482
:1004B600070B9B01AC0160E070E080E09FE30E94C7
:1004C600DE0A2B013C01A7019601C701B6010E9475
:1004D600070B9B01AC01C301B2010E94070B2BE382
:1004E6003AEA48EB5FE30E94070B9B01AC01698186
:1004F6007A818B819C810E94DE0A6B017C019B01C3
:10050600AC01C501B4010E94DF0A6627707F6D87C2
:100516007E878F87988BA501940136C2C114D104BA
:1005260000E8E006F1046CF420E030E040E85BE42B
:100536000E94070B6B017C0148EE5FEF6FEF7FEFC8
:1005460003C040E050E0BA01D701C60117E1B595F6
:10055600A795979587951A95D1F78F579109A10970
:10056600B1098C019D01040F151F261F371F0D8B26
:100576001E8B2F8B388FE894E7F8FF24460157012E
:100586006894A7F81FE3B12A22E7C21624ECD20624
:100596002CE1E206F104B4F037EDC31633EBD306D3
:1005A6003DE5E306F10494F08D899E89AF89B88D07
:1005B6000196A11DB11D8D8B9E8BAF8BB88F90E8D8
:1005C600A91AB108412C512C320104C0412C512CDE
:1005D60032014394C201880F991F880F991F7C012D
:1005E600990F000BE98EFA8E0B8FA02FC70182544C
:1005F6009F4FAF4FFC015A2F0E94C00A698B7A8B1E
:100606008B8B9C8B9B01AC01C501B4010E94DE0A59
:100616006C8F7D8F8E8F9F8F29893A894B895C8954
:10062600C501B4010E94DF0A9B01AC0160E070E0E5
:1006360080E89FE30E94030B68A379A38AA39BA388
:100646009B01AC016C8D7D8D8E8D9F8D0E94070B5D
:100656006D877E878F87988B0D851E852F853889B8
:100666000027107F09831A832B833C83750164015D
:10067600F594E794D794C794CC2410EFD122E8944C
:10068600F5F86894F5F8D701C601A05CBF4F730171
:100696006201F5E1CC0CDD1CEE1CFF1CFA95D1F7CE
:1006A600C80ED91EEA1EFB1EA701960169817A8132
:1006B6008B819C810E94070B9B01AC016C8D7D8D0B
:1006C6008E8D9F8D0E94DE0A2B013C0129893A8975
:1006D6004B895C89C701B6010E94DE0A9B01AC0109
:1006E600C501B4010E94DE0A29813A814B815C81F1
:1006F6000E94070B9B01AC01C301B2010E94DE0AF6
:1007060028A139A14AA15BA10E94070B698B7A8BAC
:100716008B8B9C8B2D853E854F855889CA01B901E7
:100726000E94070B6B017C0122E431EF43E55EE397
:100736000E94070B25E532E34CE65EE30E94DF0AE2
:10074600A70196010E94070B25E033EA4BE85EE31A
:100756000E94DF0AA70196010E94070B2BEA3AEADC
:100766004AEA5EE30E94DF0AA70196010E94070B90
:1007760027EB3DE64BED5EE30E94DF0AA7019601FB
:100786000E94070B2AE939E949E15FE30E94DF0A83
:100796004B015C01A7019601C701B6010E94070B38
:1007A6009B01AC01C501B4010E94070B6B017C01E2
:1007B60029813A814B815C816D857E858F859889FB
:1007C6000E94DF0A29893A894B895C890E94070BB6
:1007D600A70196010E94DF0A6B017C0129813A81FB
:1007E6004B815C81CA01B9010E94070B2B013C01B8
:1007F60020E030E040E450E40E94DF0AA7019601C1
:100806000E94DF0A4B015C01882420EF9222A50199
:10081600940169817A818B819C810E94070B69838F
:100826007A838B839C8320E030E040E450E4C5016A
:10083600B4010E94DE0AA30192010E94DE0A9B0116
:10084600AC01C701B6010E94DE0A2D853E854F85A3
:1008560058890E94070B6B017C01A50194016989E7
:100866007A898B899C890E94070B9B01AC01C70181
:10087600B6010E94DF0A6B017C019B01AC01698114
:100886007A818B819C810E94DF0A2B013C014424E2
:1008960030EF532220E030E446E75FE3C301B201C4
:1008A6000E94070B698B7A8B8B8B9C8B29813A81F3
:1008B6004B815C81C301B2010E94DE0A9B01AC013F
:1008C600C701B6010E94DE0A2FE438E346E75FE37C
:1008D6000E94070B6B017C0126EC33E246EF58EBD6
:1008E600C301B2010E94070B9B01AC01C701B6010F
:1008F6000E94DF0A6B017C01898D9A8DAB8D825532
:100906009F4FAF4FFC015A2F0E94C00A9B01AC01BA
:10091600C701B6010E94DF0A6B017C016D897E89E1
:100926008F89988D0E94A2094B015C01898D9A8D51
:10093600AB8D8A549F4FAF4FFC015A2F0E94C00ABD
:100946002B013C01A701960169897A898B899C89CB
:100956000E94DF0AA30192010E94DF0AA501940109
:100966000E94DF0A6627707F6D877E878F87988B48
:10097600A50194010E94DE0AA30192010E94DE0AEB
:1009860029893A894B895C890E94DE0A9B01AC0160
:10099600C701B6010E94DE0A4B015C01C984DA84F4
:1009A600EB84FC84CC2440EFD422A7019601698510
:1009B6007A858B859C850E94DE0A2D853E854F852E
:1009C60058890E94070B2B013C0129853A854B85E6
:1009D6005C85C501B4010E94070B9B01AC01C301F4
:1009E600B2010E94DF0A69837A838B839C83A70105
:1009F60096016D857E858F8598890E94070B962EB8
:100A0600A72EB82E892E6D87798B182F092F262FA2
:100A1600372F482F592F69817A818B819C810E94BB
:100A2600DF0A6B017C0169877A878B879C87DC01EB
:100A3600CB010197A105B3440CF0E8CC29853A8592
:100A46004B855C852115310541055344E9F42CE3BA
:100A56003AEA48E353E369817A818B819C810E945B
:100A6600DF0A2B013C01292D3A2D4B2D582DC701AC
:100A7600B6010E94DE0A9B01AC01C301B2010E94CD
:100A8600FE0A181694F5C2CCD701C601BF770197A6
:100A9600A641B344DCF429853A854B855C8521154E
:100AA60031054641534C09F5292D3A2D4B2D582D2C
:100AB600C701B6010E94DE0A9B01AC0169817A81F9
:100AC6008B819C810E94F90A18167CF020E632E49C
:100AD60042EA5DE06D817E818F8198850E94070BD9
:100AE60020E632E442EA5DE09FCCD701C601BF773B
:100AF60081309105A105EFE3BE070CF469C057E10B
:100B0600B595A795979587955A95D1F78E5740E055
:100B160050E060E870E08A019B0104C03595279596
:100B2600179507958A95D2F7C00ED11EE21EF31EC1
:100B3600D701C601BF7767E1B595A79597958795C4
:100B46006A95D1F78F579109A109B1094FEF5FEF68
:100B56006FE770E0082E04C0759567955795479521
:100B66000A94D2F740955095609570959A01AB011D
:100B76002C213D214E215F21E894E7F8FF2468945B
:100B8600E7F867E170E0FB01E81BF90B2601370186
:100B960004C07594679457944794EA95D2F7E9840C
:100BA600FA840B851C8517FF08C0709460945094D6
:100BB6004094411C511C611C711C692D7A2D8B2D92
:100BC600982D0E94DE0A6D87798B182F092F03C096
:100BD600412C512C320129813A814B815C816D85F2
:100BE6007989812F902F0E94DF0A4B015C018824AE
:100BF60020E8922220E032E741E35FE3C501B40139
:100C06000E94070B69877A878B879C872D85398990
:100C1600412F502FC501B4010E94DE0A9B01AC0191
:100C260069817A818B819C810E94DE0A28E132E704
:100C360041E35FE30E94070B6B017C012CE83EEB6E
:100C46004FEB55E3C501B4010E94070B9B01AC01B4
:100C5600C701B6010E94DF0A4B015C019B01AC0192
:100C660069857A858B859C850E94DF0A6B017C01EC
:100C760029853A854B855C850E94DE0A9B01AC017D
:100C8600C501B4010E94DE0A69837A838B839C8343
:100C9600A7019601C701B6010E94070B4B015C0133
:100CA6002CE43BEB41E353E30E94070B2EE03AEEC4
:100CB6004DED55E30E94DE0AA50194010E94070B43
:100CC60025E533EB4AE858E30E94DF0AA5019401C3
:100CD6000E94070B21E63BE046E35BE30E94DE0A47
:100CE600A50194010E94070B2BEA3AEA4AE25EE369
:100CF6000E94DF0AA50194010E94070B9B01AC012B
:100D0600C701B6010E94DE0A4B015C019B01AC01E2
:100D1600C701B6010E94070B69877A878B879C8774
:100D260020E030E040E050E4C501B4010E94DE0A54
:100D36009B01AC0169857A858B859C850E94030B96
:100D46004B015C0129813A814B815C81C701B60167
:100D56000E94070B29813A814B815C810E94DF0A40
:100D66009B01AC01C501B4010E94DE0AA7019601F0
:100D76000E94DE0A9B01AC0160E070E080E89FE320
:100D86000E94DE0A9301820147E1000F111F221F14
:100D9600331F4A95D1F7060F171F281F391F011554
:100DA600110540E82407310524F4A2010E944709F1
:100DB60002C0C901B8012D813E814F81588534CBCF
:100DC60060E070E080E89FE306C060E070E0CB0181
:0E0DD60002C0C501B401A396E0E10C94960A98
:100DE4004F925F926F927F928F929F92AF92BF9237
:100DF400CF92DF92EF92FF920F931F936B017C01CE
:100E0400DC01CB01B701A6014427552760787F7721
:100E14004115510560487F4759F4A7019601C70160
:100E2400B6010E94070BA70196010E94DF0A1AC0AF
:100E3400181619061A061B06D4F0892B8A2B8B2B3D
:100E440009F4CCC081E290E090936100809360004B
:100E5400A7019601C701B6010E94DE0A9B01AC01FD
:100E64000E94030B562F472F382F292FBBC067E151
:100E7400F594E794D794C7946A95D1F7C114D10433
:100E8400E104F104E1F4C12CD12C7601A7FD0AC0E0
:100E9400880F991FAA1FBB1F2FEFC21AD20AE20A9A
:100EA400F20AF4CF21E0C21AD108E108F108F09463
:100EB400E094D094C094C11CD11CE11CF11C2FE718
:100EC400C21AD108E108F108AF77BB27A068C0FEB9
:100ED40004C0880F991FAA1FBB1FF594E794D794E9
:100EE400C794880F991FAA1FBB1FE9E1F0E040E0F7
:100EF40050E060E071E0812C912C540100E010E09E
:100F0400980128013901440E551E661E771E84156A
:100F14009505A605B70574F093018201040F151F0A
:100F2400261F371F84199509A609B709840E951E33
:100F3400A61EB71E880F991FAA1FBB1F769567951B
:100F4400579547953197E9F6892B8A2B8B2BA1F17D
:100F540020E632E442EA5DE060E070E080E89FE38E
:100F64000E94DE0A20E030E040E85FE30E94FE0ACF
:100F740087FD22C020E632E442EA5DE060E070E0F2
:100F840080E89FE30E94DF0A20E030E040E85FE36E
:100F94000E94FE0A181634F482E0880E911CA11CEB
:100FA400B11C0AC0D501C40181709927AA27BB27A7
:100FB400880E991EAA1EBB1ED501C401B595A7951E
:100FC40097958795B15C37E1CC0CDD1CEE1CFF1CBA
:100FD4003A95D1F7C80ED91EEA1EFB1E5C2D4D2D85
:100FE4003E2D2F2D652F742F832F922F1F910F913C
:100FF400FF90EF90DF90CF90BF90AF909F908F9035
:0A1004007F906F905F904F90089569
:10100E0010C00E94EC0A58F00E94E50A40F029F444
:10101E005F3F29F00C94F30A51110C94D80A0C94EA
:10102E000B0B0E94560A68F39923B1F3552391F3E3
:10103E00951B550BBB27AA2762177307840738F039
:10104E009F5F5F4F220F331F441FAA1FA9F335D096
:10105E000E2E3AF0E0E832D091505040E695001C4A
:10106E00CAF72BD0FE2F29D0660F771F881FBB1F04
:10107E00261737074807AB07B0E809F0BB0B802DE2
:10108E00BF01FF2793585F4F3AF09E3F510578F00E
:10109E000C94F30A0C94D80A5F3FE4F3983ED4F311
:1010AE00869577956795B795F7959F5FC9F7880FE2
:1010BE00911D9695879597F90895E1E0660F771F34
:1010CE00881FBB1F621773078407BA0720F0621BC5
:0E10DE00730B840BBA0BEE1F88F7E095089594
:1010EC000FC00E94E50A38F00E94EC0A20F095230C
:1010FC0011F00C94F30A0C940B0B11240C94D80AD9
:10110C000E94560A70F3959FC1F3950F50E0551F3E
:10111C00629FF001729FBB27F00DB11D639FAA2740
:10112C00F00DB11DAA1F649F6627B00DA11D661F8F
:10113C00829F2227B00DA11D621F739FB00DA11DB0
:10114C00621F839FA00D611D221F749F3327A00D6A
:10115C00611D231F849F600D211D822F762F6A2F06
:10116C0011249F5750409AF0F1F088234AF0EE0F6B
:10117C00FF1FBB1F661F771F881F91505040A9F798
:10118C009E3F510580F00C94F30A0C94D80A5F3FF3
:10119C00E4F3983ED4F3869577956795B795F795D4
:1011AC00E7959F5FC1F7FE2B880F911D969587954C
:0411BC0097F9089502
:1011C00011C00E94E50A38F00E94EC0A20F039F4C0
:1011D0009F3F19F426F40C940B0B0EF4E095E7FBFB
:1011E0000C94F30AE92F0E94560A58F3BA176207C3
:1011F00073078407950720F079F4A6F50C94D70AB5
:101200000EF4E0950B2EBA2FA02D0B01B901900121
:101210000C01CA01A0011124FF27591B99F0593F65
:1012200050F4503E68F11A16F040A22F232F342FAD
:101230004427585FF3CF469537952795A795F040FB
:101240005395C9F77EF41F16BA0B620B730B840B10
:10125000BAF09150A1F0FF0FBB1F661F771F881FC8
:10126000C2F70EC0BA0F621F731F841F48F4879520
:1012700077956795B795F7959E3F08F0B0CF939512
:0E128000880F08F09927EE0F9795879508952F
:10128E000F931F93CF93DF93EA0140385105D4F0AB
:10129E0020E030E040E05FE70E94070B9E012F57F1
:1012AE003109203831056CF120E030E040E05FE795
:1012BE000E94070BCE5FD109C038D1051CF1CFE7D4
:1012CE00D0E020C042385F4FECF420E030E040E840
:1012DE005CE00E94070B9E012A593F4F22384FEFC8
:1012EE0034077CF420E030E040E85CE00E94070B1D
:1012FE00C453DF4FC2382FEFD20724F4C2E8DFEF1A
:10130E0001C0E9019E0121583F4F8901330F220B85
:10131E00330BA9019801E7E1220F331F441F551F1C
:10132E00EA95D1F70E94070BDF91CF911F910F9194
:02133E00089510
:10134000E89409C097FB3EF490958095709561955F
:101350007F4F8F4F9F4F9923A9F0F92F96E9BB2715
:101360009395F695879577956795B795F111F8CF91
:10137000FAF4BB0F11F460FF1BC06F5F7F4F8F4FFC
:101380009F4F16C0882311F096E911C0772321F0F2
:101390009EE8872F762F05C0662371F096E8862F8A
:1013A00070E060E02AF09A95660F771F881FDAF7E1
:0A13B000880F9695879597F9089528
:1013BA000E945E0A88F09F5798F0B92F9927B75173
:1013CA00B0F0E1F0660F771F881F991F1AF0BA95DF
:1013DA00C9F714C0B13091F00E94D70AB1E008955C
:1013EA000C94D70A672F782F8827B85F39F0B93F4E
:1013FA00CCF3869577956795B395D9F73EF4909592
:0E140A008095709561957F4F8F4F9F4F08958D
:101418008FEF87BB11E018BBC1E0D0E02FE986E869
:1014280091E0215080409040E1F700C00000BE01EB
:101438000D2E000C880B990B0E94A2099B01AC0190
:1014480060E070E080E090E40E9463000E94DD09A3
:0C14580068BB2196C930D10509F7DDCF33
:10146400990F0008550FAA0BE0E8FEEF16161706B1
:10147400E807F907C0F012161306E407F50798F019
:10148400621B730B840B950B39F40A2661F0232B32
:10149400242B252B21F408950A2609F4A140A695AE
:0814A4008FEF811D811D0895E9
:1014AC0057FD9058440F551F59F05F3F71F0479509
:1014BC00880F97FB991F61F09F3F79F087950895EE
:1014CC00121613061406551FF2CF4695F1DF08C00D
:1014DC00161617061806991FF1CF8695710561052A
:0414EC0008940895C3
:1014F0002F923F924F925F926F927F928F929F9224
:10150000AF92BF92CF92DF92EF92FF920F931F9311
:10151000CF93DF93CDB7DEB7CA1BDB0B0FB6F894C2
:08152000DEBF0FBECDBF099430
:101528002A88398848885F846E847D848C849B846B
:10153800AA84B984C884DF80EE80FD800C811B8179
:10154800AA81B981CE0FD11D0FB6F894DEBF0FBEA8
:06155800CDBFED01089576
:10155E00092E0394000C11F4882352F0BB0F40F4B3
:10156E00BF2B11F460FF04C06F5F7F4F8F4F9F4FF3
:02157E000895CE
:1015800057FD05C06591759185919591089561917B
:08159000719181919191089580
:10159800EC010E94150B0E94140BCE010E94160B41
:0615A800CE010E94120BAF
:0E15AE00E894BB2766277727CB0197F90895AD
:0E15BC005058BB27AA270E94E0080C94AF0AE3
:0E15CA0000240A94161617061806090608953E
:0E15D80000240A941216130614060506089540
:0C15E60097F99F6780E870E060E00895CE
:0A15F2000E94320A08F481E0089517
:0A15FC000E94320A08F48FEF0895F0
:081606000E9407080C94AF0AD2
:08160E000E9476080C94AF0A5B
:061616009FEF80EC089537
:04161C000C9400002A
:041620009F77089513
:041624000E945500CB
:02162800089523
:02162A00089521
:02162C0008951F
:00000001FF
