:100000000C942A000C948A010C948A010C948A01A5
:100010000C948A010C948A010C948A010C948A0134
:100020000C948A010C948A010C948A010C948A0124
:100030000C948A010C948A010C948A010C948A0114
:100040000C948A010C948A010C948A010C948A0104
:100050000C948A0111241FBECFE5D4E0DEBFCDBFD2
:0C0060000E9436000C947F01F894FFCF42
:10006C000E94130181E40E946E018CE40E946E01D7
:10007C0084E40E946E018FE40E946E0180E20E9473
:10008C006E0186E40E946E018CE40E946E018FE486
:10009C000E946E0182E50E946E0185E40E946E0151
:1000AC0083E50E946E0180E20E946E0186E50E944B
:1000BC006E0185E40E946E0187E40E946E0181E46A
:1000CC000E946E0180EC0E945D0182E40E946E0130
:1000DC0082E50E946E0181E40E946E0185E50E941A
:1000EC006E018CE40E946E0189E40E946E018FE423
:1000FC000E946E0180E20E946E0181E40E946E01FA
:10010C008CE40E946E0182E40E946E0185E40E94E0
:10011C006E0182E50E946E0184E50E946E018FE4FF
:10012C000E946E0180E20E946E0184E00E945D01DB
:10013C0087E00E945D0186E50E946E0184E00E94CA
:10014C005D0187E00E945D0181E40E946E0184E004
:10015C000E945D0187E00E945D0182E50E946E01B4
:10016C0084E00E945D0187E00E945D0187E40E94AB
:10017C006E0184E00E945D0187E00E945D0181E4D4
:10018C000E946E0184E00E945D0187E00E945D0187
:10019C0083E50E946E0184E00E945D0187E00E946D
:1001AC005D0180E20E946E0184E00E945D0187E0A7
:1001BC000E945D0187E40E946E0184E00E945D0153
:1001CC0087E00E945D0181E40E946E0184E00E9440
:1001DC005D0187E00E945D0182E50E946E0184E072
:1001EC000E945D0187E00E945D0183E40E946E0124
:1001FC0084E00E945D0187E00E945D0189E40E9419
:10020C006E0184E00E945D0187E00E945D0181E443
:0A021C000E946E0180E090E008955A
:100226008FEF81BB87E08ABB85EA9EE00197F1F7F5
:1002360000C0000080E30E945D0189EF90E0019715
:10024600F1F700C0000080E30E945D0189EF90E0B5
:100256000197F1F700C0000080E30E945D0189EF7D
:1002660090E00197F1F700C0000088E30E945D016D
:1002760089EF90E00197F1F700C000008CE00E9442
:100286005D0189EF90E00197F1F700C0000081E081
:100296000E945D0189EF90E00197F1F700C0000030
:1002A60086E00E945D0189EF90E00197F1F700C0BA
:0402B60000000895A7
:1002BA0082BB8CEF8BBB89EF90E00197F1F700C00E
:1002CA000000DA9883ED90E30197F1F700C000008F
:0202DA00089585
:1002DC0082BB85E08BBB89EF90E00197F1F700C002
:1002EC000000DA9883ED90E30197F1F700C000006D
:0202FC00089563
:1002FE00EC010E948F010E948E01CE010E9490019E
:06030E00CE010E948C01EB
:040314000C94000045
:040318000E9434000B
:02031C00089542
:02031E00089540
:0203200008953E
:00000001FF
