:100000000C942E000C94B2000C94B2000C94B2002C
:100010000C94B2000C94B2000C94B2000C94B20098
:100020000C94B2000C94B2000C94B2000C94B20088
:100030000C94B2000C94B2000C94B2000C94B20078
:100040000C94B2000C94B2000C94B2000C94B20068
:100050000C94B200006001F80001720011241FBE70
:10006000CFE5D4E0DEBFCDBFE4E5F0E040E017C06F
:10007000B591A59135912591059107FD0CC09591FC
:100080008591EF01F92FE82F05900D92A217B30784
:10009000D9F7FE0104C01D92A217B307E1F7EB35B3
:1000A000F40731F70E9458000C94A700F894FFCF92
:1000B000CF93DF93CDB7DEB7C859D1400FB6F894D0
:1000C000DEBF0FBECDBF8FEF81BB8ABB88E0E0E60D
:1000D000F0E0DE01119601900D928A95E1F780E93A
:1000E00091E0E8E6F0E0DE01199601900D920197AB
:1000F000E1F78E0107561E4F9E01275F3F4FFF24F9
:10010000FA94BE01675F7F4F1FC08D9182BB8191C2
:1001100080958BBB89EF90E00197F1F700C000005C
:10012000FBBA93E59A95F1F70000E217F30769F738
:100130004150510921F0FE013196DB01E6CF685FA5
:0E0140007F4F60177107E9F244E650E0F4CFFC
:10014E00EC010E94B7000E94B600CE010E94B800DA
:06015E00CE010E94B40076
:040164000C940000F7
:040168000E9456009B
:02016C000895F4
:02016E000895F2
:020170000895F0
:100172000102040810204080013C3C013C3C3C014F
:10018200013C3C013C3C3C3CC3003C3C003C3C3C14
:100192003C3C3C3C3C3C81C33F3F3F3F3F3F000037
:1001A200E7E7E7E7E7E7E7E7C3813C3C3C3C81C39D
:1001B200FFFFFFFFFFFFFFFFC3003C3C003C3C3C56
:1001C2003F3F3F3F3F3F0000013C3C013C3C3C0184
:1001D200003F3F07073F3F00013C3C013C3C3C3CA9
:1001E2000000E7E7E7E7E7E7C3813C3C3C3C81C32B
:1001F200FFFFFFFFFFFFFFFF3C3C3C3C3C99C3E796
:10020200C3003C3C003C3C3C013C3C013C3C3C3C93
:10021200C19C3C3F303C3C81C3003C3C003C3C3CEC
:10022200813C3F81FCFC3983FFFFFFFFFFFFFFFFA3
:10023200C19C3C3F303C3C81C3003C3C003C3C3CCC
:10024200013C3C013C3C3C3C813C3C3F3F3C3C81D2
:10025200E7E7E7E7E7E7E7E7C3003C3C003C3C3C75
:10026200FFFFFFFFFFFFFFFFFFFFFFFFFFFFFFFF9C
:10027200FFFFFFFFFFFFFFFFC3003C3C003C3C3C95
:100282003F3F3F3F3F3F0000033C3C3C3C3C3C0384
:10029200C3813C3C3C3C81C3FFFFFFFFFFFFFFFFEC
:1002A20000003F3F0F3F3F3F3F3F3F3F3F3F000088
:1002B200C3813C3C3C3C81C3013C3C013C3C3C3C5A
:1002C200003F3F07073F3F00813C3F81FCFC3983F1
:1002D200FFFFFFFFFFFFFFFF3C3C3C3C3C99C3E7B5
:1002E200003F3F07073F3F00C19C3C3F303C3C8101
:1002F200C3003C3C003C3C3CFFFFFFFFFFFFFFFF15
:08030200FFFFFFFFFFFFFFFFFB
:00000001FF
