:100000000C942E000C94B3000C94B3000C94B30029
:100010000C94B3000C94B3000C94B3000C94B30094
:100020000C94B3000C94B3000C94B3000C94B30084
:100030000C94B3000C94B3000C94B3000C94B30074
:100040000C94B3000C94B3000C94B3000C94B30064
:100050000C94B300006002000001740011241FBE64
:10006000CFE5D4E0DEBFCDBFE4E5F0E040E017C06F
:10007000B591A59135912591059107FD0CC09591FC
:100080008591EF01F92FE82F05900D92A217B30784
:10009000D9F7FE0104C01D92A217B307E1F7EB35B3
:1000A000F40731F70E9458000C94A800F894FFCF91
:1000B000CF93DF93CDB7DEB7C05AD1400FB6F894D7
:1000C000DEBF0FBECDBF8FEF81BB8ABB80E1E0E614
:1000D000F0E0DE01119601900D928A95E1F780E93A
:1000E00091E0E0E7F0E0DE01519601900D9201977A
:1000F000E1F78E010F551E4F9E012F5E3F4FFF24EB
:10010000FA94BE016F5E7F4F20C08D9182BB8081CB
:10011000329680958BBB89EF90E00197F1F700C094
:100120000000FBBA93E59A95F1F70000E217F30798
:1001300061F74150510921F0FE013196DB01E5CF15
:10014000685F7F4F60177107E1F244E650E0F4CF3B
:10015000EC010E94B8000E94B700CE010E94B900D5
:06016000CE010E94B50073
:040166000C940000F5
:04016A000E94560099
:02016E000895F2
:020170000895F0
:020172000895EE
:10017400010002000400080010002000400080007C
:10018400013C3C013C3C3C01013C3C013C3C3C3CD2
:10019400C3003C3C003C3C3C3C3C3C3C3C3C81C3C0
:1001A4003F3F3F3F3F3F0000E7E7E7E7E7E7E7E799
:1001B400C3813C3C3C3C81C3FFFFFFFFFFFFFFFFCB
:1001C400C3003C3C003C3C3C3F3F3F3F3F3F0000C2
:1001D400013C3C013C3C3C01003F3F07073F3F00E2
:1001E400013C3C013C3C3C3C0000E7E7E7E7E7E737
:1001F400C3813C3C3C3C81C3FFFFFFFFFFFFFFFF8B
:100204003C3C3C3C3C99C3E7C3003C3C003C3C3C8C
:10021400013C3C013C3C3C3CC19C3C3F303C3C816F
:10022400C3003C3C003C3C3C813C3F81FCFC3983AA
:10023400FFFFFFFFFFFFFFFFC19C3C3F303C3C81C1
:10024400C3003C3C003C3C3C013C3C013C3C3C3C51
:10025400813C3C3F3F3C3C81E7E7E7E7E7E7E7E7F2
:10026400C3003C3C003C3C3CFFFFFFFFFFFFFFFFA3
:10027400FFFFFFFFFFFFFFFFFFFFFFFFFFFFFFFF8A
:10028400C3003C3C003C3C3C3F3F3F3F3F3F000001
:10029400033C3C3C3C3C3C03C3813C3C3C3C81C374
:1002A400FFFFFFFFFFFFFFFF00003F3F0F3F3F3F08
:1002B4003F3F3F3F3F3F0000C3813C3C3C3C81C348
:1002C400013C3C013C3C3C3C003F3F07073F3F00B6
:1002D400813C3F81FCFC3983FFFFFFFFFFFFFFFFF1
:1002E4003C3C3C3C3C99C3E7003F3F07073F3F0091
:1002F400C19C3C3F303C3C81C3003C3C003C3C3C0A
:10030400FFFFFFFFFFFFFFFFFFFFFFFFFFFFFFFFF9
:00000001FF
