:100000000C942E000C94B2000C94B2000C94B2002C
:100010000C94B2000C94B2000C94B2000C94B20098
:100020000C94B2000C94B2000C94B2000C94B20088
:100030000C94B2000C94B2000C94B2000C94B20078
:100040000C94B2000C94B2000C94B2000C94B20068
:100050000C94B200006001200001720011241FBE48
:10006000CFE5D4E0DEBFCDBFE4E5F0E040E017C06F
:10007000B591A59135912591059107FD0CC09591FC
:100080008591EF01F92FE82F05900D92A217B30784
:10009000D9F7FE0104C01D92A217B307E1F7EB35B3
:1000A000F40731F70E9458000C94A700F894FFCF92
:1000B000CF93DF93CDB7DEB7C05CD1090FB6F8940C
:1000C000DEBF0FBECDBF8FEF81BB8ABB80E1E0E614
:1000D000F0E0DE01119601900D928A95E1F780EB38
:1000E000E0E7F0E0DE01519601900D928A95E1F78C
:1000F0008E010F531F4F9E012F5E3F4FFF24FA9436
:10010000BE016F5E7F4F20C08D9182BB8081329691
:1001100080958BBB89EF90E00197F1F700C000005C
:10012000FBBA93E59A95F1F70000E217F30761F740
:100130004150510921F0FE013196DB01E5CF685FA6
:0E0140007F4F60177107E1F24EE150E0F4CFFF
:10014E00EC010E94B7000E94B600CE010E94B800DA
:06015E00CE010E94B40076
:040164000C940000F7
:040168000E9456009B
:02016C000895F4
:02016E000895F2
:020170000895F0
:10017200010002000400080010002000400080007E
:10018200FFFFE3FBFBDBFFFFFFFFC3FBFBDFFFFF29
:10019200FFFFC3DBFFDFFFFFFFFFC3DFDFDFFFFF89
:1001A200FFFFC3DFDFDFFDFFFFFFC7DFDFCFFDFFA5
:1001B200FFFFCFDFDFC7FDFFFFFFDFDFDFC3FDFF95
:1001C200FFFFFFDFDFC1FDFFFFFFFDDFDFC1FDFF3F
:1001D200FFFFFDDFDFC1FDFDFFFFFDDFDFC1FDFD35
:1001E2000000000000000000FFFFFFFFFFFFFFFF15
:1001F2000000000000000000FFFFFFFFFFFFFFFF05
:10020200810066248181A9A98100662481A9A9A906
:10021200810066248181A9A98100662481A9A9A9F6
:10022200810066248181A9A98100662481A9A9A9E6
:00000001FF
