:100000000C942A000C944F000C944F000C944F0059
:100010000C944F000C944F000C944F000C944F0024
:100020000C944F000C944F000C944F000C944F0014
:100030000C944F000C944F000C944F000C944F0004
:100040000C944F000C944F000C944F000C944F00F4
:100050000C944F0011241FBECFE5D4E0DEBFCDBF0E
:0C0060000E9436000C944400F894FFCF7E
:10006C008FEF87BB8FEF90E088BBE3E2F4EF319723
:0C007C00F1F700C000000197B8F7F4CFC6
:10008800EC010E9454000E945300CE010E945500CA
:06009800CE010E945100A0
:04009E000C940000BE
:0400A2000E94340084
:0200A6000895BB
:0200A8000895B9
:0200AA000895B7
:00000001FF
