:100000000C942A000C9458000C9458000C9458003E
:100010000C9458000C9458000C9458000C94580000
:100020000C9458000C9458000C9458000C945800F0
:100030000C9458000C9458000C9458000C945800E0
:100040000C9458000C9458000C9458000C945800D0
:100050000C94580011241FBECFE5D4E0DEBFCDBF05
:0C0060000E9436000C944D00F894FFCF75
:10006C0081E08ABB8BBB2FE936E891E02150304010
:10007C009040E1F700C000001BBA2FE936E891E090
:0E008C00215030409040E1F700C00000EBCF63
:10009A00EC010E945D000E945C00CE010E945E009D
:0600AA00CE010E945A0085
:0400B0000C940000AC
:0400B4000E94340072
:0200B8000895A9
:0200BA000895A7
:0200BC000895A5
:00000001FF
