:100000000C942A000C94D0000C94D0000C94D000D6
:100010000C94D0000C94D0000C94D0000C94D00020
:100020000C94D0000C94D0000C94D0000C94D00010
:100030000C94D0000C94D0000C94D0000C94D00000
:100040000C94D0000C94D0000C94D0000C94D000F0
:100050000C94D00011241FBECFE5D4E0DEBFCDBF8D
:0C0060000E9436000C94C500F894FFCFFD
:10006C00CF93DF93CDB7DEB760970FB6F894DEBFB2
:10007C000FBECDBF8FEF81BB8FE084BB8ABB8FE3FC
:10008C00898386E08A838BE58B838FE48C8386E679
:10009C008D838DE68E838DE78F8387E088878FE74E
:1000AC00898787E68A8787E78B878CE78C8789E344
:1000BC008D878EE58E8789E78F8781E7888B8E0108
:1000CC000F5F1F4FDD24D3946894EE24E1F86894FD
:1000DC00FF24F2F838E0CE0140965C014CC0D5010B
:1000EC002C9122BBDBBAA9EFB0E01197F1F700C05D
:1000FC0000001BBADA012C9122BBEBBAA9EFB0E0DD
:10010C001197F1F700C000001BBADB012C9122BB48
:10011C00FBBAA9EFB0E01197F1F700C000001BBAD1
:10012C00208122BB3BBBA9EFB0E01197F1F700C0D7
:10013C0000001BBA019799F631970E171F0719F09B
:10014C0082E390E0CCCF615071090617170719F0C4
:10015C00FE017096F5CF415051090417150721F097
:10016C00BE01605F7F4FF4CFB1E0AB1AB1080A1546
:0E017C001B0509F4B0CFAE01405F5F4FF1CF1D
:10018A00EC010E94D5000E94D400CE010E94D60044
:06019A00CE010E94D2001C
:0401A0000C940000BB
:0401A4000E94340081
:0201A8000895B8
:0201AA000895B6
:0201AC000895B4
:00000001FF
